:060000000A128A110C280F
:10000800FE00030EF1000A08F2000A128A11F22813
:100018000A128A110F2883133A30FD000230FE00BD
:100028000930FF00303084000A128A11FA210A12BE
:100038008A11BA01BB01BC01BD01BE01BF01F901B2
:10004800FA0183010A128A11A62983120313A60151
:10005800A11F2F2830283728A009A109A00A0319B1
:10006800A10AA601A60AA31F3A283B284428A209E8
:10007800A309A20A0319A30A0130A4002408A606AA
:10008800A701A8012008210403194B284C2883281C
:10009800A501A50A5A2801300310A00DA10DFF3EA5
:1000A800031D50280130A4002408A507A11F5D28BE
:1000B8005E284F2801300310A70DA80DFF3E031D31
:1000C8005F2821082302031D6B2820082202031C35
:1000D8006E286F2876282008A2022108031CA30393
:1000E800A302271401300310A10CA00CFF3E031D2E
:1000F80077280130A502031D822883285E28260858
:100108000319872888288D28A709A809A70A031989
:10011800A80A2808A1002708A000080083120313D2
:10012800AD006430A0000030A1002D08A900AA018C
:100138002908A2002A08A3000A128A1129200A12F3
:100148008A11831203132008AB002B08BF000A3062
:10015800A0000030A1003F08A900AA012908F30067
:100168002A08F4009C30F500FF30F6000A128A11C4
:1001780081210A128A11831203132D087307A20022
:1001880074080318740AA3000A128A1129200A1293
:100198008A11831203132008AB002B08BE009C3081
:1001A800A9002908F3003F080A128A11E1210A125E
:1001B8008A1183120313AA00F630AB002B08F30050
:1001C8003E080A128A11E1210A128A1183120313C6
:1001D8002A072D07AC002C08BD0008000B1CF528C9
:1001E800F6280829831203130618FB28FC2801297E
:1001F8000130F000700885070729861804290529A9
:100208000729013085020B100B1D0B290C294829E1
:100218000130F0007008FA070A307A06031D152924
:1002280016291D290130F00070088312031387076F
:10023800FA018312031389017908031D242925294A
:100248002C293A08880001308900F901F90A452962
:100258007903031D302931293A293B0888000230E7
:1002680089000230F0007008F9004529023079064B
:10027800031D3F29402945293C088800043089008E
:10028800F9010B11D930810072088A00710E8300C0
:10029800FE0E7E0E09008316031788018901831656
:1002A80003130F088F3960388F000F148501061467
:1002B8008614870188010910891009118312031314
:1002C800850186018701880189018316031381133B
:1002D8001514951481128111011581140114D93056
:1002E8008312031381008B178B118B16831603134C
:1002F800161496140B100B110800F701F801731C63
:10030800862987298D297508F7070318F80A7608BA
:10031800F80701300310F50DF60DFF3E031D8E2979
:1003280001300310F40CF30CFF3E031D95297308EC
:100338007404031DA029A12983297808F4007708EB
:10034800F30008000A128A114F210A128A11831237
:10035800031305080A128A1192200A128A118312BD
:1003680003133E08AE002E08F3003F08AF002F0825
:10037800F4003D080A128A11C7210A128A11AB2912
:100388000A128A110C28F6007608303E840083137E
:100398000008F500750883120313BA007308303E8D
:1003A80084000008F5007508BB007408303E84001E
:1003B8000008F5007508BC000800F600F501761C79
:1003C800E629E729EB297308F4007408F5070310F8
:1003D800F30D0310F60C7608031DF329F429E3291D
:1003E800750808007E088A007F0882000A128A11B0
:1003F800F6210A128A118000840A04087D0603196E
:100408000034FF0A0319FE0AFA293F3406345B3424
:0E0418004F3466346D347D3407347F346F34D6
:08400000FF3FFF3FFF3FFF3FC0
:04400E00D420FF3F7C
:00000001FF
